:1000000000308A001928000028308400831300087B
:10001000031918280130F800F701F70B0D28F80B29
:100020000C284A30F700F70B13281628800B0A28F3
:10003000080003081F39830083168E1507308312CA
:100040009F008313A101A2011430A300A401A50005
:100050002610A610A70183160108C73908388100A9
:10006000831290010030F800920000308316920055
:10007000073083129F008316050885000230F700C1
:10008000F70B40284328000083121F080C13831627
:100090009F018312A408031D57288316861183121B
:1000A00086113230A80004201930A7078E282308B3
:1000B0002402031D652883168611831286153230AB
:1000C000A80004201930A7078E28A1012108183C98
:1000D000031C8C288316861183128615A20124081E
:1000E000220203187A281E30F700F70B75287828AB
:1000F000A20A6F288316861183128611A201250891
:10010000220203188A281E30F700F70B852888285A
:10011000A20A7F28A10A66281930A70783160515A9
:100120008312261005192614831685158312A6102E
:100130008519A614261C9E28A618B228261CA928B4
:10014000230824020318A828A40A24082302A500CF
:10015000B228A61CB228A4080319B228A4032408B4
:100160002302A5002708C73C0318BC2883160611E4
:0C017000043083128606A7014A286300B1
:02400E00103F61
:00000001FF
;PIC16F628A
;CRC=7993  CREATED="16-nov.-17 00:47"
